:100000000C9434000C9451000C9451000C94510049
:100010000C9451000C9451000C9451000C9451001C
:100020000C9451000C9451000C9451000C9451000C
:100030000C9451000C9451000C9451000C945100FC
:100040000C9451000C9451000C9451000C945100EC
:100050000C9451000C9451000C9451000C945100DC
:100060000C9451000C94510011241FBECFEFD8E026
:10007000DEBFCDBF11E0A0E0B1E0E0E0F1E002C002
:1000800005900D92A230B107D9F721E0A2E0B1E0CE
:1000900001C01D92A330B207E1F70E9468000C94E2
:1000A0007E000C9400008091000190910101019765
:1000B00031F415B81092010110920001089580E208
:1000C00085B981E090E0909301018093000108954B
:1000D00080E284B910926E0085E085BDC1E0A89BE6
:1000E000FECFC5BB809102018F5F809302018C33EC
:1000F000B1F7109202010E945300F1CFF894FFCFA4
:020100000100FC
:00000001FF
