:100000000C9434000C943E000C943E000C943E0082
:100010000C943E000C943E000C943E000C943E0068
:100020000C943E000C943E000C943E000C94C600D0
:100030000C943E000C943E000C943E000C943E0048
:100040000C943E000C943E000C943E000C943E0038
:100050000C943E000C943E000C943E000C943E0028
:100060000C943E000C943E0011241FBECFEFD8E04C
:10007000DEBFCDBF0E9440000C94D2000C94000063
:1000800080E880936100109261000E94B4000E9499
:100090005A000E9472000E949800009106010130EF
:1000A000E1F70E945F000E947B000E949E00109278
:1000B0000601F3CF249A259A2C982D9A0895009141
:1000C000000103950093000111E001130AC00091A3
:1000D0000301013021F405B110E3012705B91092A5
:1000E000000108951092010110920201569A5E9843
:1000F000109203010895A0910201B091010111969F
:10010000A0930201B0930101A03A0FE0B00779F487
:100110000BB110E401271092030106FF03C011E0A8
:10012000109303010BB9109202011092010108957E
:100130001092040110920501579A0895A0910501AB
:10014000B09104011196A0930501B0930401A03A67
:1001500000E0B00741F40BB110E801270BB9109291
:100160000501109204010895009181000A60009336
:1001700081000AEF0093880000E00093890000915D
:100180006F00026000936F00789408950F930F92B0
:100190000FB60F9201E0009306010F900FBE0F9073
:0801A0000F911895F894FFCFB0
:0801A80000000000000000004F
:00000001FF
