:100000000C9434000C943E000C943E000C943E0082
:100010000C943E000C943E000C943E000C943E0068
:100020000C943E000C943E000C943E000C943E0058
:100030000C943E000C943E000C943E000C943E0048
:100040000C943E000C943E000C943E000C943E0038
:100050000C943E000C943E000C943E000C943E0028
:100060000C943E000C943E0011241FBECFEFD8E04C
:10007000DEBFCDBF0E9440000C9458000C940000DD
:1000800080E09BE225B12B3271F02D3271F02053CC
:10009000121664F49B3211F48F5F03C09D3209F491
:1000A00081502150F5CF9BE201C09DE288B9EACF93
:0400B000F894FFCFF2
:00000001FF
